{
  "contractName": "TaskContract",
  "abi": [
    {
      "anonymous": false,
      "inputs": [
        {
          "indexed": true,
          "internalType": "address",
          "name": "recipient",
          "type": "address"
        },
        {
          "indexed": true,
          "internalType": "uint256",
          "name": "taskId",
          "type": "uint256"
        }
      ],
      "name": "AddTask",
      "type": "event"
    },
    {
      "anonymous": false,
      "inputs": [
        {
          "indexed": true,
          "internalType": "uint256",
          "name": "taskId",
          "type": "uint256"
        },
        {
          "indexed": false,
          "internalType": "bool",
          "name": "isDeleted",
          "type": "bool"
        }
      ],
      "name": "DeleteTask",
      "type": "event"
    },
    {
      "inputs": [
        {
          "internalType": "string",
          "name": "taskText",
          "type": "string"
        },
        {
          "internalType": "bool",
          "name": "isDeleted",
          "type": "bool"
        }
      ],
      "name": "addTask",
      "outputs": [],
      "stateMutability": "nonpayable",
      "type": "function"
    },
    {
      "inputs": [],
      "name": "getMyTasks",
      "outputs": [
        {
          "components": [
            {
              "internalType": "uint256",
              "name": "id",
              "type": "uint256"
            },
            {
              "internalType": "string",
              "name": "taskText",
              "type": "string"
            },
            {
              "internalType": "bool",
              "name": "isDeleted",
              "type": "bool"
            }
          ],
          "internalType": "struct TaskContract.Task[]",
          "name": "",
          "type": "tuple[]"
        }
      ],
      "stateMutability": "view",
      "type": "function"
    },
    {
      "inputs": [
        {
          "internalType": "uint256",
          "name": "taskId",
          "type": "uint256"
        }
      ],
      "name": "deleteTask",
      "outputs": [],
      "stateMutability": "nonpayable",
      "type": "function"
    }
  ],
  "bytecode": "0x608060405234801561001057600080fd5b50610ecf806100206000396000f3fe608060405234801561001057600080fd5b50600436106100415760003560e01c806320df458114610046578063560f3192146100625780636e13f8181461007e575b600080fd5b610060600480360381019061005b91906107af565b61009c565b005b61007c60048036038101906100779190610841565b6101ca565b005b6100866102e5565b6040516100939190610a26565b60405180910390f35b60008080549050905060006040518060600160405280838152602001858152602001841515815250908060018154018082558091505060019003906000526020600020906003020160009091909190915060008201518160000155602082015181600101908161010c9190610c54565b5060408201518160020160006101000a81548160ff0219169083151502179055505050336001600083815260200190815260200160002060006101000a81548173ffffffffffffffffffffffffffffffffffffffff021916908373ffffffffffffffffffffffffffffffffffffffff160217905550803373ffffffffffffffffffffffffffffffffffffffff167f1f54e1ba1832d428fbd7e7792beaf62b1fc5a382c207ffd614209c1413e94fda60405160405180910390a3505050565b3373ffffffffffffffffffffffffffffffffffffffff166001600083815260200190815260200160002060009054906101000a900473ffffffffffffffffffffffffffffffffffffffff1673ffffffffffffffffffffffffffffffffffffffff161461026b576040517f08c379a000000000000000000000000000000000000000000000000000000000815260040161026290610da9565b60405180910390fd5b60016000828154811061028157610280610dc9565b5b906000526020600020906003020160020160006101000a81548160ff021916908315150217905550807ff88a35c3d2016c409a46570b994a17b408dbc83c14a03f521512d50b85386d0660016040516102da9190610e07565b60405180910390a250565b60606000805b6000805490508110156103bd573373ffffffffffffffffffffffffffffffffffffffff166001600083815260200190815260200160002060009054906101000a900473ffffffffffffffffffffffffffffffffffffffff1673ffffffffffffffffffffffffffffffffffffffff1614801561039657506000818154811061037557610374610dc9565b5b906000526020600020906003020160020160009054906101000a900460ff16155b156103aa5781806103a690610e51565b9250505b80806103b590610e51565b9150506102eb565b5060008167ffffffffffffffff8111156103da576103d961064c565b5b60405190808252806020026020018201604052801561041357816020015b6104006105fa565b8152602001906001900390816103f85790505b5090506000915060005b6000805490508110156105f1573373ffffffffffffffffffffffffffffffffffffffff166001600083815260200190815260200160002060009054906101000a900473ffffffffffffffffffffffffffffffffffffffff1673ffffffffffffffffffffffffffffffffffffffff161480156104c85750600081815481106104a7576104a6610dc9565b5b906000526020600020906003020160020160009054906101000a900460ff16155b156105de57600081815481106104e1576104e0610dc9565b5b90600052602060002090600302016040518060600160405290816000820154815260200160018201805461051490610a77565b80601f016020809104026020016040519081016040528092919081815260200182805461054090610a77565b801561058d5780601f106105625761010080835404028352916020019161058d565b820191906000526020600020905b81548152906001019060200180831161057057829003601f168201915b505050505081526020016002820160009054906101000a900460ff1615151515815250508284815181106105c4576105c3610dc9565b5b602002602001018190525082806105da90610e51565b9350505b80806105e990610e51565b91505061041d565b50809250505090565b604051806060016040528060008152602001606081526020016000151581525090565b6000604051905090565b600080fd5b600080fd5b600080fd5b600080fd5b6000601f19601f8301169050919050565b7f4e487b7100000000000000000000000000000000000000000000000000000000600052604160045260246000fd5b6106848261063b565b810181811067ffffffffffffffff821117156106a3576106a261064c565b5b80604052505050565b60006106b661061d565b90506106c2828261067b565b919050565b600067ffffffffffffffff8211156106e2576106e161064c565b5b6106eb8261063b565b9050602081019050919050565b82818337600083830152505050565b600061071a610715846106c7565b6106ac565b90508281526020810184848401111561073657610735610636565b5b6107418482856106f8565b509392505050565b600082601f83011261075e5761075d610631565b5b813561076e848260208601610707565b91505092915050565b60008115159050919050565b61078c81610777565b811461079757600080fd5b50565b6000813590506107a981610783565b92915050565b600080604083850312156107c6576107c5610627565b5b600083013567ffffffffffffffff8111156107e4576107e361062c565b5b6107f085828601610749565b92505060206108018582860161079a565b9150509250929050565b6000819050919050565b61081e8161080b565b811461082957600080fd5b50565b60008135905061083b81610815565b92915050565b60006020828403121561085757610856610627565b5b60006108658482850161082c565b91505092915050565b600081519050919050565b600082825260208201905092915050565b6000819050602082019050919050565b6108a38161080b565b82525050565b600081519050919050565b600082825260208201905092915050565b60005b838110156108e35780820151818401526020810190506108c8565b838111156108f2576000848401525b50505050565b6000610903826108a9565b61090d81856108b4565b935061091d8185602086016108c5565b6109268161063b565b840191505092915050565b61093a81610777565b82525050565b6000606083016000830151610958600086018261089a565b506020830151848203602086015261097082826108f8565b91505060408301516109856040860182610931565b508091505092915050565b600061099c8383610940565b905092915050565b6000602082019050919050565b60006109bc8261086e565b6109c68185610879565b9350836020820285016109d88561088a565b8060005b85811015610a1457848403895281516109f58582610990565b9450610a00836109a4565b925060208a019950506001810190506109dc565b50829750879550505050505092915050565b60006020820190508181036000830152610a4081846109b1565b905092915050565b7f4e487b7100000000000000000000000000000000000000000000000000000000600052602260045260246000fd5b60006002820490506001821680610a8f57607f821691505b602082108103610aa257610aa1610a48565b5b50919050565b60008190508160005260206000209050919050565b60006020601f8301049050919050565b600082821b905092915050565b600060088302610b0a7fffffffffffffffffffffffffffffffffffffffffffffffffffffffffffffffff82610acd565b610b148683610acd565b95508019841693508086168417925050509392505050565b6000819050919050565b6000610b51610b4c610b478461080b565b610b2c565b61080b565b9050919050565b6000819050919050565b610b6b83610b36565b610b7f610b7782610b58565b848454610ada565b825550505050565b600090565b610b94610b87565b610b9f818484610b62565b505050565b5b81811015610bc357610bb8600082610b8c565b600181019050610ba5565b5050565b601f821115610c0857610bd981610aa8565b610be284610abd565b81016020851015610bf1578190505b610c05610bfd85610abd565b830182610ba4565b50505b505050565b600082821c905092915050565b6000610c2b60001984600802610c0d565b1980831691505092915050565b6000610c448383610c1a565b9150826002028217905092915050565b610c5d826108a9565b67ffffffffffffffff811115610c7657610c7561064c565b5b610c808254610a77565b610c8b828285610bc7565b600060209050601f831160018114610cbe5760008415610cac578287015190505b610cb68582610c38565b865550610d1e565b601f198416610ccc86610aa8565b60005b82811015610cf457848901518255600182019150602085019450602081019050610ccf565b86831015610d115784890151610d0d601f891682610c1a565b8355505b6001600288020188555050505b505050505050565b600082825260208201905092915050565b7f596f7520617265206e6f7420746865206f776e6572206f66207468697320746160008201527f736b000000000000000000000000000000000000000000000000000000000000602082015250565b6000610d93602283610d26565b9150610d9e82610d37565b604082019050919050565b60006020820190508181036000830152610dc281610d86565b9050919050565b7f4e487b7100000000000000000000000000000000000000000000000000000000600052603260045260246000fd5b610e0181610777565b82525050565b6000602082019050610e1c6000830184610df8565b92915050565b7f4e487b7100000000000000000000000000000000000000000000000000000000600052601160045260246000fd5b6000610e5c8261080b565b91507fffffffffffffffffffffffffffffffffffffffffffffffffffffffffffffffff8203610e8e57610e8d610e22565b5b60018201905091905056fea264697066735822122077171f85f71d597c130c76b9cbc20d7d3ce5ed65960ae26542b40ab284aaa73064736f6c634300080f0033",
  "immutableReferences": {},
  "source": "// SPDX-License-Identifier: MIT\npragma solidity >=0.4.22 <0.9.0;\n\ncontract TaskContract {\n  event AddTask(address indexed recipient, uint indexed taskId);\n  event DeleteTask(uint indexed taskId, bool isDeleted);\n\n  struct Task {\n    uint id;\n    string taskText;\n    bool isDeleted;\n  }\n\n  Task[] private tasks;\n  mapping(uint => address) private taskToOwner;\n\n  function addTask(string memory taskText, bool isDeleted) external {\n    uint taskId = tasks.length;\n    tasks.push(Task(taskId, taskText, isDeleted));\n    taskToOwner[taskId] = msg.sender;\n    emit AddTask(msg.sender, taskId);\n  }\n\n  function getMyTasks() external view returns (Task[] memory) {\n    uint counter = 0;\n    for (uint i = 0; i < tasks.length; i++) {\n      if (taskToOwner[i] == msg.sender && !tasks[i].isDeleted) {\n        counter++;\n      }\n    }\n    Task[] memory result = new Task[](counter);\n    counter = 0;\n    for (uint i = 0; i < tasks.length; i++) {\n      if (taskToOwner[i] == msg.sender && !tasks[i].isDeleted) {\n        result[counter] = tasks[i];\n        counter++;\n      }\n    }\n    return result;\n  }\n\n  function deleteTask(uint taskId) external {\n    require(taskToOwner[taskId] == msg.sender, \"You are not the owner of this task\");\n    tasks[taskId].isDeleted = true;\n    emit DeleteTask(taskId, true);\n  }\n}\n",
  "sourcePath": "/home/runner/Solidity-Todo-List/backend/contracts/TaskContract.sol",
  "compiler": {
    "name": "solc",
    "version": "0.8.15+commit.e14f2714.Emscripten.clang"
  },
  "schemaVersion": "3.4.8",
  "updatedAt": "2024-04-28T16:36:59.750Z",
  "devdoc": {
    "kind": "dev",
    "methods": {},
    "version": 1
  },
  "userdoc": {
    "kind": "user",
    "methods": {},
    "version": 1
  }
}